:400000000080002011000000490400004904000008B5044B1A6803F53F5302331A6000F033FA00BFFA46004010B5054C237833B9044B13B10448AFF300800123237010BDB0
:400040005881FF1F00000000201D0000084B10B51BB108490848AFF300800848036803B910BD074B002BFBD0BDE81040184700BF000000005C81FF1F201D0000C880FF1F68
:400080000000000030B585B000F0D0FA00F0CAFF01F05CF800F0DAFF224801F087F8002501F062F85338252818D8DFE800F015171717171317171717171717171717171744
:4000C0001717171717171717171717171717151717171713002501E000240125012000F0BDFF0028DCD0002DDAD000F0CFFF0E4B23F814000134B4F5FA6F0CD2D0E70A4BFB
:4001000033F914200949684601F0E6F9684601F04DF8013400E00024B4F5FA6FEFD300242546BDE7241D0000A081FF1F341D0000FEE700BFF0B40022174611E050F8276013
:40014000F3B226F0FF0608E001EB420511F812406D78A5550132013BDBB2002BF4D101371A2FEBD9F0BC70470F4B1B78DBB203F007010E4A11701B090132137040F28122D9
:400180000B4B1A80102203F65C131A702023094A137040F2011146321180123213704422054B1A70704700BFCF0100496E5800403C510040005B00407658004008B50A46A6
:4001C000002101F080F908BD08B501F071F908BD38B50024314B1C80502202331A70192502331D8018232E4A13707721023211800232137004222B492B48FFF7E5FF022213
:400200002A4B1A7008224FF040231A70032103F500731970264B1B78DBB226490B70264B1A8041F25122023B1A800CE0234B1B7803F0010343EA440404F003044FF4F07057
:4002400001F0FAF8013D0DB1032CEFD115B90320FFF76EFF1A4B4FF480721A8007221A70002218490A704820023108701A700222033B1A7004220A331A70134A137843F0E7
:4002800007031370013A137843F001031370013A137843F08003137038BD00BF804000408640004038040048004100400043004008010049A146004022420040254200402C
:4002C0000440004006400040A2430040012807D8044B53F820201844017A13780B431370704700BF3C1D0000012808D8044B53F820201844017A137823EA0103137070475B
:400300003C1D000038B572B63B4A137843F00403137000240BE0394863001A19510001440A46098AD068FFF749FF0134E4B2082CF1D900240CE03148A20011194B000344BD
:40034000B3F84C20996C586CFFF73EFF0134E4B2012CF0D92A494FF09040FFF7EBFE0A25284B1D7004212848FFF728FF04212748FFF724FF264A137843F0020313701032C2
:40038000137843F002031370224C237843F040032370A2F58632513A137843F0100313702A461D491D48FFF70FFF08221C491D48FFF70AFF08221C491C48FFF705FF08226E
:4003C0001B491C48FFF700FF1B4A137843F0080313701A4D61232B70FFF7FAFE81232B700122174B1A70FFF7BFFE0E2221461548FFF7EAFE38BD00BFE84600403C1D0000CD
:400400006C00004883580040007600400876004003500140A043004014040048C051004020040048125100402804004822510040300400483251004022430040004800406F
:4004400004000840B043004008B501F005F803680C2B00D1FEE7FEE708B5094B1A681044084BC31A802B02DC054B186005E000F0F3FF0C2303604FF0FF32104608BD00BF0A
:40048000CC80FF1F4891FF1F08B5104E104D16E029686B68AC68002204E051F8040B43F8040B0432A242F8D1E868002203E0002143F8041B04328242F9D11035013E002E24
:4004C000E6D100F0CFFFFFF7DDFDFEE701000000B81E000008B5114A114B1A60114A136843F40073136000230AE0032B03D80E4A52F8231000E00D490D4A42F82310013301
:400500002F2BF2D90B4B1A780B4B1A70084A0B4B1A60FFF7F7FE00F03BF908BD0004FA050CED00E014ED00E000000000490400000080FF1FBC760040C080FF1F08ED00E08B
:4005400010B500F0CBF800F027FA074C0121207800F038F90121607800F034F9002000F0D9F800F071F810BD7481FF1F70B505460E464FF48043020C0121084600F072F8F1
:40058000094C2070A07801230246314600F0AAF945F68332A9B2A07800F0B8F9A178207800F058F970BD00BF7481FF1F70B505460E464FF48043020C0121084600F070F833
:4005C000094C6070E07801230246314600F08AF945F68332A9B2E07800F098F9E178607800F038F970BD00BF7481FF1F10B500F0B9F8022000F080F8042000F0A3F800F024
:40060000EDF900F055F9074CA07000F051F9E070054C64212046FFF7A9FF64216018FFF7C5FF10BD7481FF1F941D000008B5054B1B7923B9FFF7DAFF0122024B1A71FFF74A
:400640007FFF08BD7481FF1F054A137843F0040313701032137843F004031370704700BFA2430040F0B583B016461F460B4D00242C700194009423460A460146204600F038
:40068000F5F83A463146287800F0CAF80221287800F0B4F8287803B0F0BD00BFD080FF1FF0B583B016461F460B4C012525700023019300930A460146284600F0D7F83A463F
:4006C0003146207800F0ACF80221207800F096F8207803B0F0BD00BFD180FF1F054A137843F0080313701032137843F008031370704700BFA8430040054B1A7802F0FD025B
:400700001A701A7800F0020010431870704700BF2C580040014B1870704700BF835B0040064B1B78C3F3810303F19243063393F83831DBB2024A1370704700BF2C58004084
:400740000B46004008B5064B1A7802F0F3021A701A7800F00C0010431870FFF7E1FF08BD2C58004008B50020074B187001331870064A137843F008031370FFF7E3FF022006
:40078000FFF7BAFF08BD00BF2C5800409F5A00400B4A7F2313708021517007E0DA0002F1804202F5F042013BDBB21370002BF5D1DB0003F1804303F5F04300221A70704731
:4007C000D480FF1F172815D831B103010A495A5C42F020025A5405E0030107495A5C02F0DF025A540001044A835C43F00103835400207047012070471070004017280BD82D
:400800000001064A835C03F0F103490001F00E011943815400207047012070471070004041F6FF73994201D14FF4005141F6FF739A4201D14FF40052172808D8C00000F112
:40084000804000F5EC408180C280002070470120704700BF172805D8034B03EB0010417200207047012070471070004017281BD810B4C00000F1804404F5EC44D201D2B271
:4008800001F07F01114321709DF804201201D2B203F00F03134363709DF8083003F00F03A3700020E07001E00120704710BC704710B500F0C9FD0A4B5B78182B0BD9084AB7
:4008C0001478013B5370E30003F1804303F5F0431B78137000E0FF2400F0BAFD204610BDD480FF1F10F0800F0CD111F4704F0BD1C00000F1804000F5F04001808270C370FB
:4009000000207047012070470120704710F0800F08D1C00000F1804000F5F0408180C280002070470120704701BE704708B5034B1B7A00FB03F000F07FFD08BDDC80FF1F91
:4009400070B504460E46074B1D681F2802D90020FFF7EAFF04F01F04103455F8240045F8246070BD08ED00E038B504460D46072902D90020FFF7D8FF1F2C02D90020FFF76F
:40098000D3FF04F01F0000F1604000F564406D01EDB2057038BD00BF084A137843F060031370A2F5A652133A137843F0080313701032137843F00803137070477758004080
:4009C000054B1A7802F0FC021A701A7800F0030010431870704700BF5E58004008B50220FFF7EEFF08BD00BF38B59DF81040651EEDB2032D51D8013809282ED8DFE800F015
:400A0000052D2D052D2D0F192D230F2B03D92548007840B222E02448007840B21EE00F2B03D92248007840B218E02148007840B214E00F2B03D91F48007840B20EE01E48D9
:400A4000007840B20AE00F2B03D91C48007840B204E01B48007840B200E0002001EB401101FB02F2D20B91B20D2B0BD8C3F10E0192B20A4191B2621E124800EB8202013313
:400A8000937005E0631E0F4A02EB83030F229A70013C0C4B23F8241038BD0020FFF744FF38BD00BF180100491C010049190100491D0100491A0100491E0100491B0100491E
:400AC0001F0100497C81FF1FF8B5074600F0BCFC06460D4D2B7843F003032B700B4C237843F0030323700A4B1F700320FFF71EFF2B7803F0FC032B70237803F0FC0323708B
:400B0000304600F0A5FCF8BDF8460040F946004092580040F8B504460022C04B1A7401285AD13822BE4B1A70042202331A70062201331A70002501331D7001331D700F223C
:400B400001331A7002331D7001331D7001331D7001260A331E70142203F527631A70092201331A700A23AF4A13700132157011210332117012210132117001321670023239
:400B8000157001321570013213704322A64B1A705220FFF799FF5822A44B1A7001331D70052705331F70022201331A7001331D7001331D70284600F01BFBCD229C4B1A6093
:400BC0003146384600F038FB3146BA2000F0B8FB98491D20FFF7B4FE022C5DD13822904B1A70042202331A70062201331A70002501331D7001331D703F2201331A70023342
:400C00001D7001331D7001331D7001260A331E70502203F527631A70272201331A702C2201331A7001331D70552203331A705A2201331A70052701331F7002331E7011220B
:400C400001331A70192201331A70972201331A704420FFF739FF5822744B1A7001331D7005331F70022201331A7001331D7001331D70284600F0BCFA4FF47A426C4B1A60C1
:400C80003146384600F0D8FA3146252000F058FB69491D20FFF754FE032C5DD13822604B1A70042202331A70062201331A70002501331D7001331D703F2201331A70023395
:400CC0001D7001331D7001331D7001260A331E70502203F527631A70272201331A702C2201331A7001331D70552203331A705A2201331A70052701331F7002331E7011224B
:400D000001331A70192201331A70972201331A704420FFF7D9FE5822444B1A7001331D7005331F70022201331A7001331D7001331D70284600F05CFA4FF47A423C4B1A6021
:400D40003146384600F078FA3146252000F0F8FA3A491D20FFF7F4FD042C5DD13822304B1A70042202331A70062201331A70002401331C7001331C703F2201331A70023357
:400D80001C7001331C7001331C7001250A331D70502203F527631A70272201331A702C2201331A7001331C70552203331A705A2201331A70052601331E7002331D70112293
:400DC00001331A70192201331A70972201331A704420FFF779FE5822144B1A7001331C7005331E70022201331A7001331C7001331C70204600F0FCF94FF47A420C4B1A608E
:400E00002946304600F018FA2946252000F098FA0B491D20FFF794FDF8BD00BF7C81FF1F004E00408658004091580040945800404091FF1FDD100000E1100000E51000002B
:400E4000E91000002DE9F04182B0394D4FF0010885F80080374E00247474102000F0DAF9102000F05BFA07211D20FFF77DFD0427314B1F7001331C7007331C702F4A1378A7
:400E800043F0180313702E4B1C7003F2F5231C7001331C700A22A3F209331A7001331C7002331C70122205331A70132201331A7004331C701422A3F68C231A70CDF8008002
:400EC00008234FF4004248F6B6512046FFF78CFD0223009310234FF4004249F2DA012046FFF782FD0323009310234FF4004249F2DA012046FFF778FD009710234FF4004210
:400F000049F2DA012046FFF76FFD2B78013B06EB83039A780B4B1A702B78013B36F82320094B1A802878FFF7F5FD02B0BDE8F081EC80FF1F7C81FF1F96580040075B004088
:400F4000935800400E4E00400C4E004070B500F07BFA06462A4B1B782A4B1A7842F001021A701A7842F010021A7010331A7842F001021A701A7842F010021A70224D2B7806
:400F800043F002032B70214C237843F0020323701F4A137843F0030313700320FFF7C6FC2B7803F0FD032B70237803F0FD032370184A137843F0060313707A22164B1A707B
:400FC000164A137843F0010313701032137843F0010313700F3A137843F0010313701032137843F0010313704FF000530C4A1360A2F5C0721360304600F02AFA70BD00BFA3
:40100000EC80FF1FAA430040F8460040F9460040915800407758004082580040A143004080E200E008B5084B9B7C4BB9064BDB7C13F0FF0F01D1FFF705FF0122024B9A7416
:40104000FFF784FF08BD00BF7C81FF1F024A137843F0010313707047004E0040094B1B7C13F0FF0F03D0074B5B7CDBB203E0064B1B7803F00103012B01D00028EED01846FE
:40108000704700BF7C81FF1F014E00400E4B1B7803F00303012B03D80C4B188880B209E00A4A12780A49087842EA0020032B01D1084B1B78084B1B7C13F0FF0F02D0002240
:4010C000054B5A7400B27047144E0040104E0040114E0040124E00407C81FF1F704700BF704700BF704700BF704700BF7222084B1A702022033B1A700622A3F25F131A70C3
:40110000472210331A7000224F331A70704700BF8B65004010B500F097F904460A4A137843F020031370033A137843F010031370A2F58072137843F01003137000F06CF99B
:40114000204600F085F910BD9B65004008B5054B1B7823B9FFF7CAFF0122024B1A70FFF7D9FF08BD9481FF1F084B1B78DBB213F0200F06D0064A1078C0B213F01E0F02D1CB
:401180007047002070470020704700BF6865004048650040034B1B7813F0040FFAD1024B18707047686400404864004038B5074B1B782BB938BDFFF7EDFF0134A4B201E0D2
:4011C00005460024285D0028F5D138BD9481FF1F10B5002404E02046FFF786F80134E4B2012CF8D9FF22014B1A7010BDED80FF1F10B50446FFF7ECFF2046FFF767F8014B2F
:401200001C7010BDED80FF1F014B188880B2704780400040034B1A7800F0F80010431870704700BF82400040024B187800F00700704700BF8240004070B505460E46FFF7D4
:40124000F3FF0446FFF7E0FFA84256D02B4B1B7803F0010294B900B185B938B9284B1D80284A137803F0BF03137070BD254A137843F040031370224B1D8070BD22B300238D
:4012800021490B7001240F310C7004310B700C390B7803F07F030B701A4B1B7813F0080F00D08DB9194B18800721013B1970164B1B7813F0010FFAD110490B7803F0FE034D
:4012C0000B700021104B19700C4B1B7813F0010F0DD00E4B1D800EB1032200E001220A4B1A70094B1B7813F0010FFAD170BD044B1D8002490B7813430B7070BDA243004009
:4013000080400040824000400140004002400040014B188880B2704700410040034B1A7800F0F80010431870704700BF02410040024B187800F00700704700BF02410040E9
:4013400070B505460E46FFF7F3FF0446FFF7E0FFA84256D02B4B1B7803F0010294B900B185B938B9284B1D80284A137803F0BF03137070BD254A137843F040031370224B94
:401380001D8070BD22B3002321490B70012413310C7004390B7008390B7803F07F030B701A4B1B7813F0080F00D08DB9194B18800721013B1970164B1B7813F0010FFAD152
:4013C00010490B7803F0FE030B700021104B19700C4B1B7813F0010F0DD00E4B1D800EB1032200E001220A4B1A70094B1B7813F0010FFAD170BD044B1D8002490B78134305
:401400000B7070BDA143004000410040024100400140004002400040054A137843F0020313701032137843F002031370704700BFA2430040000000000230800803D000BFD5
:4014400001380046FCD17047EFF3108072B6704780F31088704700BF014B1868704700BF5081FF1F0E4B70B51E460E4C0025E41AA410A54204D056F8253098470135F8E701
:4014800000F008FD084B094C1E46E41AA4100025A54204D056F8253098470135F8E770BDA01E0000A01E0000A01E0000A81E000010B5431E0A44914204D011F8014B03F86A
:4014C000014FF8E710BD03460244934202D003F8011BFAE7704700000EB400B54FF402719CB0ADF814106FF00041049107914FF6FF711DAB02900690084853F8042BADF8E8
:401500001610006802A9019300F064F8029B00221A701CB05DF804EB03B070475081FF1F2DE9F0478E6882469E420C46914698463ED88A8912F4906F3AD025680969022392
:401540006F1A656905EB450595FBF3F57B1C43449D4238BF1D4653050FD5294600F040FB064698B13A462169FFF7A2FFA38923F4906343F08003A38113E02A4600F08EFB13
:40158000064670B92169504600F0DEFA0C23CAF80030A3894FF0FF3043F04003A381BDE8F08726613E44266046466561ED1BA560464528BF464649463246206800F0A8FA50
:4015C000A36800209B1BA36023681E442660BDE8F08700002DE9F04F9DB003938B8980461C060D4616460DD50B695BB9402100F0F7FA2860286118B90C23C8F80030CDE03B
:4016000040236B610023099320238DF82930DFF89CB130238DF82A3037463C4614F8013B1BB9B7EB060910D003E0252BF9D02746F3E74B46324629464046FFF771FF0130C1
:4016400000F0A780099B4B4409933B78002B00F0A08000234FF0FF3204930793059206938DF853301A930126052221784E4800F041FA671C049B38B14B4A3C46801A06FA89
:4016800000F018430490EFE7D90644BF20228DF853201A0744BF2B228DF8532022782A2A03D0079A00210A200BE0039A111D12680391002A10DA524243F002000792049075
:4016C0000BE027463B780134303B092B03D800FB02320121F5E701B107923B782E2B1ED17B782A2B0AD1039B02371A1D1B680392002BB8BF4FF0FF33059310E00023194657
:401700000593781C0A2407463A780130303A092A03D804FB01210123F5E703B1059103223978224800F0E6F940B14023CBEB000003FA00F0049B0137184304903978062297
:401740001B487E1C8DF8281000F0D4F988B1194B33B9039B073323F007030833039314E003AB00932A46144B04A94046AFF3008007E003AB00932A460F4B04A9404600F035
:4017800093F8B0F1FF3F824603D0099B5344099342E7AB895B0601D4099801E04FF0FF301DB0BDE8F08F00BF5E1E0000641E0000681E000000000000211500002DE9F04713
:4017C00091461F460A698B6806469342B8BF1346C9F8003091F843200C46DDF8208012B10133C9F800302368990642BFD9F800300233C9F80030256815F0060510D104F105
:40180000190A07E00123524639463046C04701301AD00135E368D9F800209B1A9D42F1DB94F843302268003318BF012392060FD5E118302081F843005A1C94F84510224404
:40184000023382F8431003E04FF0FF30BDE8F08704F1430239463046C0470130F4D02268D9F80050E36802F00602042A08BF5D1B2269A3680CBF25EAE57500259342C4BF2A
:401880009B1AED184FF000091A344D4509D00123224639463046C0470130D5D009F10109F3E70020BDE8F0872DE9F04317460A7E85B06E2A984606460C460C9B01F1430E94
:4018C00000F0AE8011D8632A22D009D8002A00F0BB80582A40F0CA8081F84520834955E0642A1ED0692A1CD0C0E0732A00F0B08009D86F2A2ED0702A40F0B8800A6842F0DB
:4019000020020A603EE0752A24D0782A3AD0ADE01A6801F14205111D1960136884F84230A8E021681A6811F0800F02D0111D196008E011F0400F02F10401196002D0B2F9A4
:40194000003000E01368002B3CDA2D225B4284F8432037E021681A6811F0800F02D0111D196007E011F0400F02F10401196001D0138800E01368227E5C496F2A14BF0A2259
:4019800008221BE078225A4984F845202268186812F0800F00F104051D6003D1550601D5038800E00368D00744BF42F0200222601BB9226822F0200222601022002084F865
:4019C000430001E049490A226568002DA56008DB206820F0040020602BB9002D7DD175460CE0002B79D07546B3FBF2F002FB1033CB5C05F8013D03460028F5D1082A0BD15B
:401A00002368DA0708D5236962689A42DEBF302305F8013C05F1FF35C5EB0E0323612EE008681A6810F0800F496903D0101D1860136808E010F0400F02F10400186013683D
:401A400001D0198000E0196000232361754616E01A68111D1960156800216268284600F049F808B1401B6060636804E004F1420584F8422001232361002384F84330CDF8FF
:401A800000803B4603AA21463046FFF797FE013002D14FF0FF3026E023692A4639463046C0470130F5D023689B0710D5002504F1190907E001234A4639463046C047013094
:401AC000E7D00135E368039A9B1A9D42F2DBE068039B9842B8BF184605E00B7804F1420584F842308AE705B0BDE8F0836F1E0000801E000010B5C9B202449042034605D0AA
:401B00001C7801308C42F8D1184610BD002010BD884210B501EB020301D8421E0BE09842FBD28118D21AD34204D013F8014D01F8014DF8E710BD994204D011F8014B02F82E
:401B4000014FF8E710BD000038B50546002944D051F8043C0C1F002BB8BFE41800F0D4F81E4A1368114613B96360146030E0A3420DD92268A018834201BF18685B6812189A
:401B8000226063600C6023E0A24203D813465A68002AF9D118681918A1420BD12168014458188242196013D110685268014419605A600DE002D90C232B6009E021686018BE
:401BC000824201BF106852680918216062605C602846BDE8384000F098B838BD9C81FF1F70B5CD1C25F0030508350C2D38BF0C25002D064601DBA94202D90C23336046E048
:401C000000F082F8234B1C681A462146A1B10B685B1B0ED40B2B03D90B60CC18CD501EE08C420BBF63684B681360636018BF0C4615E00C464968E9E7174C23681BB9304673
:401C400000F052F820602946304600F04DF8431C18D0C41C24F00304A0420DD12560304600F053F804F10B00231D20F00700C31A0ED05A42E25070BD211A304600F034F87E
:401C80000130EBD10C233360304600F03EF8002070BD00BF9C81FF1F9881FF1FF8B5074615460E4621B91146BDE8F840FFF798BF1AB9FFF749FF2846F8BD00F027F885424D
:401CC0000ED929463846FFF78BFF044650B131462A46FFF7EDFB31463846FFF735FF01E03046F8BD2046F8BD38B5064C0023054608462360FEF7B0FB431C02D1236803B1AB
:401D00002B6038BD4491FF1F7047704751F8040C0028BEBF091851F8043CC0180438704700000000434F4D20506F7274204F70656E00000025640D0A00000000035B0040BB
:401D40002443004040000000005100401000405100403000F0510040100000000140001000140140000480180140800300400140000A004C01400002005001402000000078
:401D8000605200408C03004806000018014094030048800080878F979FA6AEB5BCC2C9CFD5DBE0E5E9EDF1F4F6F9FAFCFCFCFCFCFAF9F6F4F1EDE9E5E0DBD5CFC9C2BCB5C8
:401DC000AEA69F978F87807870686059514A433D36302A241F1A16120E0B09060503030303030506090B0E12161A1F242A30363D434A51596068707880878F979FA6AEB513
:401E0000BCC2C9CFD5DBE0E5E9EDF1F4F6F9FAFCFCFCFCFCFAF9F6F4F1EDE9E5E0DBD5CFC9C2BCB5AEA69F978F87807870686059514A433D36302A241F1A16120E0B090622
:401E40000503030303030506090B0E12161A1F242A30363D434A5159606870784300232D302B2000686C4C0065666745464700303132333435363738394142434445460014
:401E80003031323334353637383961626364656600000000F8B500BFF8BC08BC9E4670474D000000D5040000F8B500BFF8BC08BC9E46704729000000C81E0000C880FF1F27
:401EC00090000000F00F0000000000004891FF1FFFFF00007F800000030000000000E02EC05D00001800000000366E0101FF00000000000000000000000000000000000074
:401F0000000000000000000000000000000000005C1E0000000000000000000000000000000000000000000000000000000000000000000000000000000000000000000027
:401F400000000000000000000000000000000000F080FF1F0000000000000000000000000000000000000000000000000000000000000000000000000000000000000000D3
:401F80000000000000000000000000000000000000000000000000000000000000000000000000000000000000000000000000000000000000000000000000000000000021
:401FC00000000000000000000000000000000000000000000000000000000000000000000000000000000000000000000000000000000000000000000000000000000000E1
:4020000000000000000000000000000000000000000000000000000000000000000000000000000000000000000000000000000000000000000000000000000000000000A0
:402040000000000000000000000000000000000000000000000000000000000000000000000000000000000000000000000000000000000000000000000000000000000060
:020000040003F7
:0200000480007A
:40000000015A004001640040026500400103014004060140020701405A08014033090140040B0140040D0140021701400E1801403F1901403B1A0140321B0140034001403B
:4000400003410140024301400244014003450140054601400647014006480140064C0140074D014008500140015101409F01880F88388B72EE06B880BE40D804DF01180274
:40008000E002000206020A020C0111031304190A1B041D031F0C220223082B052C022D032F043002310F34013B023E1140164104460C47EB483449FF4AFF4BFF4EF04F44F9
:4000C000500C5401580459045A045B045C105D115F0166C06A406B028720880489108A028D098E068F10930395149801995C9B029D709F0CA16CA311AA08B004B11FB2086E
:40010000B401B51FB602B760B980BE51BF40C005C640C9FFCA07CBFFCC40CD20CEF0CF05D008D804D904DA04DC12DD01DF01E040E1A8E240E3200010030204080511060140
:400140000702092010041680174018501A0A1E88200221222740288029012C082E802F40311A334035113740380839203B804480474048014C04500C5110550856815E88A1
:400180005F22944096029804C0F3C202C492CAB1CCBFCE0ED090D228D6F0E002944096029804B00494409602A840AE01B401EC4082058E039206960298069A01AA01B00782
:4001C000BA02BB02D804D904DC11DF010040034005510710080809200B800C080E410F081008140815221744184019011D701E401F442101220223402401251027A02D80D5
:400200002E012F283480360237143D023F8044804502460847844F4057445C0166806708912097809B409D11A008AA80AB20B204B702C0F9C2FEC4F2CAF0CCF0CE90D0F0E3
:40024000D210D680D830E840EC400414060908010A060C0A0E11241F281F3207341858045C015F01801081DC8321840C850888048B048C088DFF920293E3940D95E79602A5
:400280009718981099189C0D9D109E02A00FA144A403A580A60CA810A9C0AD3CAFC2B010B138B201B31FB5D8B60EBA80BB28BE04D602D711D804D904DB04DC11DD10DF0143
:4002C000018003280402060407210C200D0A0E011028151217041B281D031E21250927142F6A354137243D203E093F405E206C296D107540760C7721831289808B4091025B
:40030000934096019D809F14A110A503A728B280B320B501B608C0F7C2F0C476CAF0CCF0CEF0D62039043C40CE60A840AD04EE608540E0407C20DE0100209C20C002450202
:400340009C20B010D001EE013320576085029C20A502CC08254027109F10A540B710C8A0A001B001B420B740E803EC02110174018901A001C408DE04E601000601010C06C3
:400380000D01100211011C021D01100A808000004000000009007001000004006000190000006001003080000230180000008030000004300400003004200008003040046B
:4003C0000910300A040C80017802033082002000000004053405020001000C0E14FFFFFF62A0F0410C0000001800000004040404111100010000000000004002001030103E
:400400000010101200000000000000000000000000000000800040808000800000000000000B0B000000000004000000000000000000000000000300BB0018010000000059
:40044000000000000000000000000000000000000000000000000000000000000000000000000000000000000000000000000000000000000000000000000000000000007C
:40048000000000000000000000000000000000000000000000000000000000000000000000000000000000000000000000000000000000000000000000000000000000003C
:4004C00000000000000000000000000000000000000000000000000000000000000000000000000000000000000000000000000000000000000000000000000000000000FC
:4005000000000000000000000000000000000000000000000000000000000000000000000000000000000000000000000000000000000000000000000000000000000000BB
:0200000490006A
:0400000000004005B7
:0200000490105A
:04000000BC90ACAF55
:0200000490303A
:02000000DA7AAA
:0200000490402A
:4000000000000000000000000000000000000000000000000000000000000000000000000000000000000000000000000000000000000000000000000000000000000000C0
:400040000000000000000000000000000000000000000000000000000000000000000000000000000000000000000000000000000000000000000000000000000000000080
:400080000000000000000000000000000000000000000000000000000000000000000000000000000000000000000000000000000000000000000000000000000000000040
:4000C0000000000000000000000000000000000000000000000000000000000000000000000000000000000000000000000000000000000000000000000000000000000000
:0200000490501A
:0C00000000012E16106900012E21EAE319
:00000001FF